{
  "_format": "hh-sol-artifact-1",
  "contractName": "StorageHash",
  "sourceName": "contracts/StorageHash.sol",
  "abi": [
    {
      "inputs": [],
      "stateMutability": "nonpayable",
      "type": "constructor"
    },
    {
      "anonymous": false,
      "inputs": [
        {
          "indexed": true,
          "internalType": "address",
          "name": "by",
          "type": "address"
        },
        {
          "indexed": true,
          "internalType": "bytes32",
          "name": "hashValue",
          "type": "bytes32"
        },
        {
          "indexed": false,
          "internalType": "uint256",
          "name": "timestamp",
          "type": "uint256"
        }
      ],
      "name": "HashStored",
      "type": "event"
    },
    {
      "inputs": [
        {
          "internalType": "bytes32",
          "name": "",
          "type": "bytes32"
        }
      ],
      "name": "exists",
      "outputs": [
        {
          "internalType": "bool",
          "name": "",
          "type": "bool"
        }
      ],
      "stateMutability": "view",
      "type": "function"
    },
    {
      "inputs": [
        {
          "internalType": "bytes32",
          "name": "_h",
          "type": "bytes32"
        }
      ],
      "name": "isStored",
      "outputs": [
        {
          "internalType": "bool",
          "name": "",
          "type": "bool"
        }
      ],
      "stateMutability": "view",
      "type": "function"
    },
    {
      "inputs": [],
      "name": "owner",
      "outputs": [
        {
          "internalType": "address",
          "name": "",
          "type": "address"
        }
      ],
      "stateMutability": "view",
      "type": "function"
    },
    {
      "inputs": [
        {
          "internalType": "bytes32",
          "name": "_h",
          "type": "bytes32"
        }
      ],
      "name": "storeHash",
      "outputs": [],
      "stateMutability": "nonpayable",
      "type": "function"
    },
    {
      "inputs": [
        {
          "internalType": "bytes32",
          "name": "",
          "type": "bytes32"
        }
      ],
      "name": "storedAt",
      "outputs": [
        {
          "internalType": "uint256",
          "name": "",
          "type": "uint256"
        }
      ],
      "stateMutability": "view",
      "type": "function"
    },
    {
      "inputs": [
        {
          "internalType": "bytes32",
          "name": "",
          "type": "bytes32"
        }
      ],
      "name": "storedBy",
      "outputs": [
        {
          "internalType": "address",
          "name": "",
          "type": "address"
        }
      ],
      "stateMutability": "view",
      "type": "function"
    }
  ],
  "bytecode": "0x608060405273a4b5ee2906090ce2cdbf5dfff944db26f397037d6000806101000a81548173ffffffffffffffffffffffffffffffffffffffff021916908373ffffffffffffffffffffffffffffffffffffffff1602179055503480156200006557600080fd5b5062000076620000bc60201b60201c565b600160006101000a81548173ffffffffffffffffffffffffffffffffffffffff021916908373ffffffffffffffffffffffffffffffffffffffff16021790555062000489565b6000606060008054906101000a900473ffffffffffffffffffffffffffffffffffffffff1673ffffffffffffffffffffffffffffffffffffffff166040516024016040516020818303038152906040527f7bdf2ec7000000000000000000000000000000000000000000000000000000007bffffffffffffffffffffffffffffffffffffffffffffffffffffffff19166020820180517bffffffffffffffffffffffffffffffffffffffffffffffffffffffff8381831617835250505050604051620001899190620003d4565b6000604051808303816000865af19150503d8060008114620001c8576040519150601f19603f3d011682016040523d82523d6000602084013e620001cd565b606091505b5090508091505080806020019051810190620001ea919062000457565b73ffffffffffffffffffffffffffffffffffffffff163373ffffffffffffffffffffffffffffffffffffffff16036200035357606060008054906101000a900473ffffffffffffffffffffffffffffffffffffffff1673ffffffffffffffffffffffffffffffffffffffff166040516024016040516020818303038152906040527f7a6ce2e1000000000000000000000000000000000000000000000000000000007bffffffffffffffffffffffffffffffffffffffffffffffffffffffff19166020820180517bffffffffffffffffffffffffffffffffffffffffffffffffffffffff8381831617835250505050604051620002e89190620003d4565b6000604051808303816000865af19150503d806000811462000327576040519150601f19603f3d011682016040523d82523d6000602084013e6200032c565b606091505b509050809150508080602001905181019062000349919062000457565b9250505062000358565b339150505b90565b600081519050919050565b600081905092915050565b60005b838110156200039157808201518184015260208101905062000374565b60008484015250505050565b6000620003aa826200035b565b620003b6818562000366565b9350620003c881856020860162000371565b80840191505092915050565b6000620003e282846200039d565b915081905092915050565b600080fd5b600073ffffffffffffffffffffffffffffffffffffffff82169050919050565b60006200041f82620003f2565b9050919050565b620004318162000412565b81146200043d57600080fd5b50565b600081519050620004518162000426565b92915050565b60006020828403121562000470576200046f620003ed565b5b6000620004808482850162000440565b91505092915050565b61098980620004996000396000f3fe608060405234801561001057600080fd5b50600436106100625760003560e01c806338a699a4146100675780633f42aeab14610097578063418ed809146100c75780637fe88885146100f75780638da5cb5b14610113578063c3e5faea14610131575b600080fd5b610081600480360381019061007c9190610684565b610161565b60405161008e91906106cc565b60405180910390f35b6100b160048036038101906100ac9190610684565b610181565b6040516100be91906106cc565b60405180910390f35b6100e160048036038101906100dc9190610684565b6101ab565b6040516100ee9190610728565b60405180910390f35b610111600480360381019061010c9190610684565b6101de565b005b61011b61037a565b6040516101289190610728565b60405180910390f35b61014b60048036038101906101469190610684565b6103a0565b604051610158919061075c565b60405180910390f35b60026020528060005260406000206000915054906101000a900460ff1681565b60006002600083815260200190815260200160002060009054906101000a900460ff169050919050565b60046020528060005260406000206000915054906101000a900473ffffffffffffffffffffffffffffffffffffffff1681565b6000801b8103610223576040517f08c379a000000000000000000000000000000000000000000000000000000000815260040161021a906107d4565b60405180910390fd5b6002600082815260200190815260200160002060009054906101000a900460ff1615610284576040517f08c379a000000000000000000000000000000000000000000000000000000000815260040161027b90610840565b60405180910390fd5b60016002600083815260200190815260200160002060006101000a81548160ff0219169083151502179055504260036000838152602001908152602001600020819055506102d06103b8565b6004600083815260200190815260200160002060006101000a81548173ffffffffffffffffffffffffffffffffffffffff021916908373ffffffffffffffffffffffffffffffffffffffff1602179055508061032a6103b8565b73ffffffffffffffffffffffffffffffffffffffff167f7743435aedfbc72f87046016e5fc6473b7d029a8927887505f1af2f64f94ad064260405161036f919061075c565b60405180910390a350565b600160009054906101000a900473ffffffffffffffffffffffffffffffffffffffff1681565b60036020528060005260406000206000915090505481565b6000606060008054906101000a900473ffffffffffffffffffffffffffffffffffffffff1673ffffffffffffffffffffffffffffffffffffffff166040516024016040516020818303038152906040527f7bdf2ec7000000000000000000000000000000000000000000000000000000007bffffffffffffffffffffffffffffffffffffffffffffffffffffffff19166020820180517bffffffffffffffffffffffffffffffffffffffffffffffffffffffff838183161783525050505060405161048391906108d1565b6000604051808303816000865af19150503d80600081146104c0576040519150601f19603f3d011682016040523d82523d6000602084013e6104c5565b606091505b50905080915050808060200190518101906104e09190610926565b73ffffffffffffffffffffffffffffffffffffffff163373ffffffffffffffffffffffffffffffffffffffff160361064157606060008054906101000a900473ffffffffffffffffffffffffffffffffffffffff1673ffffffffffffffffffffffffffffffffffffffff166040516024016040516020818303038152906040527f7a6ce2e1000000000000000000000000000000000000000000000000000000007bffffffffffffffffffffffffffffffffffffffffffffffffffffffff19166020820180517bffffffffffffffffffffffffffffffffffffffffffffffffffffffff83818316178352505050506040516105db91906108d1565b6000604051808303816000865af19150503d8060008114610618576040519150601f19603f3d011682016040523d82523d6000602084013e61061d565b606091505b50905080915050808060200190518101906106389190610926565b92505050610646565b339150505b90565b600080fd5b6000819050919050565b6106618161064e565b811461066c57600080fd5b50565b60008135905061067e81610658565b92915050565b60006020828403121561069a57610699610649565b5b60006106a88482850161066f565b91505092915050565b60008115159050919050565b6106c6816106b1565b82525050565b60006020820190506106e160008301846106bd565b92915050565b600073ffffffffffffffffffffffffffffffffffffffff82169050919050565b6000610712826106e7565b9050919050565b61072281610707565b82525050565b600060208201905061073d6000830184610719565b92915050565b6000819050919050565b61075681610743565b82525050565b6000602082019050610771600083018461074d565b92915050565b600082825260208201905092915050565b7f496e76616c696420686173680000000000000000000000000000000000000000600082015250565b60006107be600c83610777565b91506107c982610788565b602082019050919050565b600060208201905081810360008301526107ed816107b1565b9050919050565b7f4861736820616c72656164792073746f72656400000000000000000000000000600082015250565b600061082a601383610777565b9150610835826107f4565b602082019050919050565b600060208201905081810360008301526108598161081d565b9050919050565b600081519050919050565b600081905092915050565b60005b83811015610894578082015181840152602081019050610879565b60008484015250505050565b60006108ab82610860565b6108b5818561086b565b93506108c5818560208601610876565b80840191505092915050565b60006108dd82846108a0565b915081905092915050565b60006108f3826106e7565b9050919050565b610903816108e8565b811461090e57600080fd5b50565b600081519050610920816108fa565b92915050565b60006020828403121561093c5761093b610649565b5b600061094a84828501610911565b9150509291505056fea26469706673582212203c75c0aac0abc67cabf5391f765514169e99256fd2762cc4d13fd5d0d005648164736f6c63430008180033",
  "linkReferences": {},
  "deployedLinkReferences": {}
}